{
  "contractName": "ERC165",
  "abi": [
    {
      "inputs": [],
      "payable": false,
      "stateMutability": "nonpayable",
      "type": "constructor"
    },
    {
      "constant": true,
      "inputs": [
        {
          "name": "interfaceId",
          "type": "bytes4"
        }
      ],
      "name": "supportsInterface",
      "outputs": [
        {
          "name": "",
          "type": "bool"
        }
      ],
      "payable": false,
      "stateMutability": "view",
      "type": "function"
    }
  ],
  "bytecode": "0x608060405234801561001057600080fd5b5061004c6301ffc9a77c010000000000000000000000000000000000000000000000000000000002610051640100000000026401000000009004565b61010e565b63ffffffff7c010000000000000000000000000000000000000000000000000000000002817bffffffffffffffffffffffffffffffffffffffffffffffffffffffff1916141515156100a257600080fd5b6001600080837bffffffffffffffffffffffffffffffffffffffffffffffffffffffff19167bffffffffffffffffffffffffffffffffffffffffffffffffffffffff1916815260200190815260200160002060006101000a81548160ff02191690831515021790555050565b6101458061011d6000396000f3fe608060405234801561001057600080fd5b5060043610610048576000357c01000000000000000000000000000000000000000000000000000000009004806301ffc9a71461004d575b600080fd5b6100986004803603602081101561006357600080fd5b8101908080357bffffffffffffffffffffffffffffffffffffffffffffffffffffffff191690602001909291905050506100b2565b604051808215151515815260200191505060405180910390f35b6000806000837bffffffffffffffffffffffffffffffffffffffffffffffffffffffff19167bffffffffffffffffffffffffffffffffffffffffffffffffffffffff1916815260200190815260200160002060009054906101000a900460ff16905091905056fea165627a7a7230582097188eb0b9fc4bb946237b8f332831db96343d689b67ce385a02b88e342048720029",
  "source": "// SPDX-License-Identifier: MIT\npragma solidity >0.4.25;\n\n/// @title Base Contract that implements ERC165\n/// @author ismaelbernal83@gmail.com\n/// @notice Creates a standard method to publish and detect what interfaces a smart contract implements.\ncontract ERC165 {\n       \n    /********************************************************************************************/\n    /*                                       CONSTANTS                                          */\n    /********************************************************************************************/   \n    bytes4 private constant _INTERFACE_ID_ERC165 = 0x01ffc9a7;\n    // 0x01ffc9a7 === bytes4(keccak256('supportsInterface(bytes4)'))\n\n    /********************************************************************************************/\n    /*                                       STATE                                              */\n    /********************************************************************************************/\n    mapping(bytes4 => bool) private _supportedInterfaces;\n\n    /********************************************************************************************/\n    /*                                       CONSTRUCTOR                                        */\n    /********************************************************************************************/\n    constructor () public {\n        _registerInterface(_INTERFACE_ID_ERC165);\n    }\n\n    /********************************************************************************************/\n    /*                                   SMART CONTRACT FUNCTIONS                               */\n    /********************************************************************************************/\n    function _registerInterface(bytes4 interfaceId) internal {\n        require(interfaceId != 0xffffffff);\n        _supportedInterfaces[interfaceId] = true;\n    }\n\n    /********************************************************************************************/\n    /*                                     UTILITY FUNCTIONS                                    */\n    /********************************************************************************************/\n    function supportsInterface(bytes4 interfaceId) external view returns (bool) {\n        return _supportedInterfaces[interfaceId];\n    }\n}",
  "sourcePath": "/home/isma/Desktop/code/blockchain/RealEstateMarketplace/eth-contracts/contracts/base/ERC165.sol",
  "compiler": {
    "name": "solc",
    "version": "0.5.2+commit.1df8f40c.Emscripten.clang"
  },
  "schemaVersion": "3.4.4",
  "updatedAt": "2022-09-29T21:59:18.168Z",
  "devdoc": {
    "author": "ismaelbernal83@gmail.com",
    "methods": {},
    "title": "Base Contract that implements ERC165"
  },
  "userdoc": {
    "methods": {
      "constructor": "*****************************************************************************************",
      "supportsInterface(bytes4)": {
        "notice": "*****************************************************************************************"
      }
    },
    "notice": "Creates a standard method to publish and detect what interfaces a smart contract implements."
  }
}