{
  "contractName": "SolnSquareVerifier",
  "abi": [
    {
      "constant": true,
      "inputs": [
        {
          "name": "interfaceId",
          "type": "bytes4"
        }
      ],
      "name": "supportsInterface",
      "outputs": [
        {
          "name": "",
          "type": "bool"
        }
      ],
      "payable": false,
      "stateMutability": "view",
      "type": "function"
    },
    {
      "constant": true,
      "inputs": [],
      "name": "name",
      "outputs": [
        {
          "name": "",
          "type": "string"
        }
      ],
      "payable": false,
      "stateMutability": "view",
      "type": "function"
    },
    {
      "constant": true,
      "inputs": [
        {
          "name": "tokenId",
          "type": "uint256"
        }
      ],
      "name": "getApproved",
      "outputs": [
        {
          "name": "",
          "type": "address"
        }
      ],
      "payable": false,
      "stateMutability": "view",
      "type": "function"
    },
    {
      "constant": false,
      "inputs": [
        {
          "name": "to",
          "type": "address"
        },
        {
          "name": "tokenId",
          "type": "uint256"
        }
      ],
      "name": "approve",
      "outputs": [],
      "payable": false,
      "stateMutability": "nonpayable",
      "type": "function"
    },
    {
      "constant": true,
      "inputs": [],
      "name": "totalSupply",
      "outputs": [
        {
          "name": "",
          "type": "uint256"
        }
      ],
      "payable": false,
      "stateMutability": "view",
      "type": "function"
    },
    {
      "constant": false,
      "inputs": [
        {
          "name": "from",
          "type": "address"
        },
        {
          "name": "to",
          "type": "address"
        },
        {
          "name": "tokenId",
          "type": "uint256"
        }
      ],
      "name": "transferFrom",
      "outputs": [],
      "payable": false,
      "stateMutability": "nonpayable",
      "type": "function"
    },
    {
      "constant": false,
      "inputs": [
        {
          "name": "_myid",
          "type": "bytes32"
        },
        {
          "name": "_result",
          "type": "string"
        }
      ],
      "name": "__callback",
      "outputs": [],
      "payable": false,
      "stateMutability": "nonpayable",
      "type": "function"
    },
    {
      "constant": true,
      "inputs": [
        {
          "name": "owner",
          "type": "address"
        },
        {
          "name": "index",
          "type": "uint256"
        }
      ],
      "name": "tokenOfOwnerByIndex",
      "outputs": [
        {
          "name": "",
          "type": "uint256"
        }
      ],
      "payable": false,
      "stateMutability": "view",
      "type": "function"
    },
    {
      "constant": false,
      "inputs": [
        {
          "name": "_myid",
          "type": "bytes32"
        },
        {
          "name": "_result",
          "type": "string"
        },
        {
          "name": "_proof",
          "type": "bytes"
        }
      ],
      "name": "__callback",
      "outputs": [],
      "payable": false,
      "stateMutability": "nonpayable",
      "type": "function"
    },
    {
      "constant": false,
      "inputs": [
        {
          "name": "to",
          "type": "address"
        },
        {
          "name": "tokenId",
          "type": "uint256"
        }
      ],
      "name": "mint",
      "outputs": [
        {
          "name": "",
          "type": "bool"
        }
      ],
      "payable": false,
      "stateMutability": "nonpayable",
      "type": "function"
    },
    {
      "constant": false,
      "inputs": [
        {
          "name": "from",
          "type": "address"
        },
        {
          "name": "to",
          "type": "address"
        },
        {
          "name": "tokenId",
          "type": "uint256"
        }
      ],
      "name": "safeTransferFrom",
      "outputs": [],
      "payable": false,
      "stateMutability": "nonpayable",
      "type": "function"
    },
    {
      "constant": true,
      "inputs": [
        {
          "name": "index",
          "type": "uint256"
        }
      ],
      "name": "tokenByIndex",
      "outputs": [
        {
          "name": "",
          "type": "uint256"
        }
      ],
      "payable": false,
      "stateMutability": "view",
      "type": "function"
    },
    {
      "constant": true,
      "inputs": [
        {
          "name": "_address",
          "type": "address"
        }
      ],
      "name": "addressToString",
      "outputs": [
        {
          "name": "_uintAsString",
          "type": "string"
        }
      ],
      "payable": false,
      "stateMutability": "pure",
      "type": "function"
    },
    {
      "constant": true,
      "inputs": [
        {
          "name": "tokenId",
          "type": "uint256"
        }
      ],
      "name": "ownerOf",
      "outputs": [
        {
          "name": "",
          "type": "address"
        }
      ],
      "payable": false,
      "stateMutability": "view",
      "type": "function"
    },
    {
      "constant": true,
      "inputs": [
        {
          "name": "owner",
          "type": "address"
        }
      ],
      "name": "balanceOf",
      "outputs": [
        {
          "name": "",
          "type": "uint256"
        }
      ],
      "payable": false,
      "stateMutability": "view",
      "type": "function"
    },
    {
      "constant": true,
      "inputs": [
        {
          "name": "x",
          "type": "uint256"
        }
      ],
      "name": "toBytes",
      "outputs": [
        {
          "name": "b",
          "type": "bytes"
        }
      ],
      "payable": false,
      "stateMutability": "pure",
      "type": "function"
    },
    {
      "constant": false,
      "inputs": [],
      "name": "setUnpause",
      "outputs": [],
      "payable": false,
      "stateMutability": "nonpayable",
      "type": "function"
    },
    {
      "constant": true,
      "inputs": [],
      "name": "isOwner",
      "outputs": [
        {
          "name": "",
          "type": "bool"
        }
      ],
      "payable": false,
      "stateMutability": "view",
      "type": "function"
    },
    {
      "constant": true,
      "inputs": [],
      "name": "symbol",
      "outputs": [
        {
          "name": "",
          "type": "string"
        }
      ],
      "payable": false,
      "stateMutability": "view",
      "type": "function"
    },
    {
      "constant": false,
      "inputs": [
        {
          "name": "to",
          "type": "address"
        },
        {
          "name": "approved",
          "type": "bool"
        }
      ],
      "name": "setApprovalForAll",
      "outputs": [],
      "payable": false,
      "stateMutability": "nonpayable",
      "type": "function"
    },
    {
      "constant": false,
      "inputs": [
        {
          "name": "from",
          "type": "address"
        },
        {
          "name": "to",
          "type": "address"
        },
        {
          "name": "tokenId",
          "type": "uint256"
        },
        {
          "name": "_data",
          "type": "bytes"
        }
      ],
      "name": "safeTransferFrom",
      "outputs": [],
      "payable": false,
      "stateMutability": "nonpayable",
      "type": "function"
    },
    {
      "constant": true,
      "inputs": [
        {
          "name": "tokenId",
          "type": "uint256"
        }
      ],
      "name": "tokenURI",
      "outputs": [
        {
          "name": "",
          "type": "string"
        }
      ],
      "payable": false,
      "stateMutability": "view",
      "type": "function"
    },
    {
      "constant": true,
      "inputs": [],
      "name": "verifierContract",
      "outputs": [
        {
          "name": "",
          "type": "address"
        }
      ],
      "payable": false,
      "stateMutability": "view",
      "type": "function"
    },
    {
      "constant": false,
      "inputs": [],
      "name": "setPause",
      "outputs": [],
      "payable": false,
      "stateMutability": "nonpayable",
      "type": "function"
    },
    {
      "constant": true,
      "inputs": [],
      "name": "baseTokenURI",
      "outputs": [
        {
          "name": "",
          "type": "string"
        }
      ],
      "payable": false,
      "stateMutability": "view",
      "type": "function"
    },
    {
      "constant": true,
      "inputs": [
        {
          "name": "owner",
          "type": "address"
        },
        {
          "name": "operator",
          "type": "address"
        }
      ],
      "name": "isApprovedForAll",
      "outputs": [
        {
          "name": "",
          "type": "bool"
        }
      ],
      "payable": false,
      "stateMutability": "view",
      "type": "function"
    },
    {
      "constant": false,
      "inputs": [
        {
          "name": "newOwner",
          "type": "address"
        }
      ],
      "name": "transferOwnership",
      "outputs": [],
      "payable": false,
      "stateMutability": "nonpayable",
      "type": "function"
    },
    {
      "inputs": [
        {
          "name": "verifierAddress",
          "type": "address"
        },
        {
          "name": "tokenName",
          "type": "string"
        },
        {
          "name": "tokenSymbol",
          "type": "string"
        }
      ],
      "payable": false,
      "stateMutability": "nonpayable",
      "type": "constructor"
    },
    {
      "anonymous": false,
      "inputs": [
        {
          "indexed": false,
          "name": "addressSolution",
          "type": "address"
        }
      ],
      "name": "AddedSolutionEvent",
      "type": "event"
    },
    {
      "anonymous": false,
      "inputs": [
        {
          "indexed": true,
          "name": "from",
          "type": "address"
        },
        {
          "indexed": true,
          "name": "to",
          "type": "address"
        },
        {
          "indexed": true,
          "name": "tokenId",
          "type": "uint256"
        }
      ],
      "name": "Transfer",
      "type": "event"
    },
    {
      "anonymous": false,
      "inputs": [
        {
          "indexed": true,
          "name": "owner",
          "type": "address"
        },
        {
          "indexed": true,
          "name": "approved",
          "type": "address"
        },
        {
          "indexed": true,
          "name": "tokenId",
          "type": "uint256"
        }
      ],
      "name": "Approval",
      "type": "event"
    },
    {
      "anonymous": false,
      "inputs": [
        {
          "indexed": true,
          "name": "owner",
          "type": "address"
        },
        {
          "indexed": true,
          "name": "operator",
          "type": "address"
        },
        {
          "indexed": false,
          "name": "approved",
          "type": "bool"
        }
      ],
      "name": "ApprovalForAll",
      "type": "event"
    },
    {
      "anonymous": false,
      "inputs": [
        {
          "indexed": false,
          "name": "origin",
          "type": "address"
        }
      ],
      "name": "ContractPaused",
      "type": "event"
    },
    {
      "anonymous": false,
      "inputs": [
        {
          "indexed": false,
          "name": "origin",
          "type": "address"
        }
      ],
      "name": "ContractUnpaused",
      "type": "event"
    },
    {
      "anonymous": false,
      "inputs": [
        {
          "indexed": false,
          "name": "newOwner",
          "type": "address"
        }
      ],
      "name": "OwnershipTransferred",
      "type": "event"
    },
    {
      "constant": false,
      "inputs": [
        {
          "name": "owner",
          "type": "address"
        },
        {
          "name": "a",
          "type": "uint256[2]"
        },
        {
          "name": "b",
          "type": "uint256[2][2]"
        },
        {
          "name": "c",
          "type": "uint256[2]"
        },
        {
          "name": "inputs",
          "type": "uint256[2]"
        }
      ],
      "name": "addSolution",
      "outputs": [],
      "payable": false,
      "stateMutability": "nonpayable",
      "type": "function"
    },
    {
      "constant": true,
      "inputs": [
        {
          "name": "countSolution",
          "type": "uint256"
        }
      ],
      "name": "getSolutionInfoByCount",
      "outputs": [
        {
          "name": "",
          "type": "string"
        }
      ],
      "payable": false,
      "stateMutability": "view",
      "type": "function"
    },
    {
      "constant": true,
      "inputs": [
        {
          "name": "countSolution",
          "type": "uint256"
        }
      ],
      "name": "getOwnerByCount",
      "outputs": [
        {
          "name": "",
          "type": "string"
        }
      ],
      "payable": false,
      "stateMutability": "view",
      "type": "function"
    },
    {
      "constant": true,
      "inputs": [
        {
          "name": "countSolution",
          "type": "uint256"
        }
      ],
      "name": "getIndexByCount",
      "outputs": [
        {
          "name": "",
          "type": "string"
        }
      ],
      "payable": false,
      "stateMutability": "view",
      "type": "function"
    },
    {
      "constant": false,
      "inputs": [
        {
          "name": "owner",
          "type": "address"
        },
        {
          "name": "tokenId",
          "type": "uint256"
        },
        {
          "name": "a",
          "type": "uint256[2]"
        },
        {
          "name": "b",
          "type": "uint256[2][2]"
        },
        {
          "name": "c",
          "type": "uint256[2]"
        },
        {
          "name": "inputs",
          "type": "uint256[2]"
        }
      ],
      "name": "mintNewNFT",
      "outputs": [],
      "payable": false,
      "stateMutability": "nonpayable",
      "type": "function"
    }
  ],
  "bytecode": "0x608060405260006014553480156200001657600080fd5b5060405162004bab38038062004bab833981018060405260608110156200003c57600080fd5b810190808051906020019092919080516401000000008111156200005f57600080fd5b828101905060208101848111156200007657600080fd5b81518560018202830111640100000000821117156200009457600080fd5b50509291906020018051640100000000811115620000b157600080fd5b82810190506020810184811115620000c857600080fd5b8151856001820283011164010000000082111715620000e657600080fd5b505092919050505081818181606060405190810160405280603f815260200162004b6c603f9139336000806101000a81548173ffffffffffffffffffffffffffffffffffffffff021916908373ffffffffffffffffffffffffffffffffffffffff16021790555060008060146101000a81548160ff021916908315150217905550620001a46301ffc9a77c010000000000000000000000000000000000000000000000000000000002620002f5640100000000026401000000009004565b620001e16380ac58cd7c010000000000000000000000000000000000000000000000000000000002620002f5640100000000026401000000009004565b6200021e63780e9d637c010000000000000000000000000000000000000000000000000000000002620002f5640100000000026401000000009004565b82600f908051906020019062000236929190620003b3565b5081601090805190602001906200024f929190620003b3565b50806011908051906020019062000268929190620003b3565b50620002a6635b5e139f7c010000000000000000000000000000000000000000000000000000000002620002f5640100000000026401000000009004565b505050505082601360006101000a81548173ffffffffffffffffffffffffffffffffffffffff021916908373ffffffffffffffffffffffffffffffffffffffff16021790555050505062000462565b63ffffffff7c010000000000000000000000000000000000000000000000000000000002817bffffffffffffffffffffffffffffffffffffffffffffffffffffffff1916141515156200034757600080fd5b6001806000837bffffffffffffffffffffffffffffffffffffffffffffffffffffffff19167bffffffffffffffffffffffffffffffffffffffffffffffffffffffff1916815260200190815260200160002060006101000a81548160ff02191690831515021790555050565b828054600181600116156101000203166002900490600052602060002090601f016020900481019282601f10620003f657805160ff191683800117855562000427565b8280016001018555821562000427579182015b828111156200042657825182559160200191906001019062000409565b5b5090506200043691906200043a565b5090565b6200045f91905b808211156200045b57600081600090555060010162000441565b5090565b90565b6146fa80620004726000396000f3fe608060405234801561001057600080fd5b506004361061020d576000357c01000000000000000000000000000000000000000000000000000000009004806370a082311161012c578063c87b56dd116100bf578063e985e9c51161008e578063e985e9c514611060578063ea95deaf146110dc578063f2fde38b1461125d578063fea369d0146112a15761020d565b8063c87b56dd14610ee2578063cf69568814610f89578063d431b1ac14610fd3578063d547cfb714610fdd5761020d565b80638f32d59b116100fb5780638f32d59b14610ce857806395d89b4114610d0a578063a22cb46514610d8d578063b88d4fde14610ddd5761020d565b806370a0823114610b38578063775a8f5e14610b9057806383ae502e14610c37578063848cb5c614610cde5761020d565b806338bbfa50116101a45780634f6ccce7116101735780634f6ccce7146108405780635e57966d146108825780636352211e1461093f5780636aa69d4e146109ad5761020d565b806338bbfa50146105695780633d3d34be146106c557806340c10f191461076c57806342842e0e146107d25761020d565b806318160ddd116101e057806318160ddd146103b657806323b872dd146103d457806327dc297e146104425780632f745c59146105075761020d565b806301ffc9a71461021257806306fdde0314610277578063081812fc146102fa578063095ea7b314610368575b600080fd5b61025d6004803603602081101561022857600080fd5b8101908080357bffffffffffffffffffffffffffffffffffffffffffffffffffffffff19169060200190929190505050611348565b604051808215151515815260200191505060405180910390f35b61027f6113b0565b6040518080602001828103825283818151815260200191508051906020019080838360005b838110156102bf5780820151818401526020810190506102a4565b50505050905090810190601f1680156102ec5780820380516001836020036101000a031916815260200191505b509250505060405180910390f35b6103266004803603602081101561031057600080fd5b8101908080359060200190929190505050611452565b604051808273ffffffffffffffffffffffffffffffffffffffff1673ffffffffffffffffffffffffffffffffffffffff16815260200191505060405180910390f35b6103b46004803603604081101561037e57600080fd5b81019080803573ffffffffffffffffffffffffffffffffffffffff16906020019092919080359060200190929190505050611566565b005b6103be611743565b6040518082815260200191505060405180910390f35b610440600480360360608110156103ea57600080fd5b81019080803573ffffffffffffffffffffffffffffffffffffffff169060200190929190803573ffffffffffffffffffffffffffffffffffffffff16906020019092919080359060200190929190505050611750565b005b6105056004803603604081101561045857600080fd5b81019080803590602001909291908035906020019064010000000081111561047f57600080fd5b82018360208201111561049157600080fd5b803590602001918460018302840111640100000000831117156104b357600080fd5b91908080601f016020809104026020016040519081016040528093929190818152602001838380828437600081840152601f19601f820116905080830192505050505050509192919290505050611775565b005b6105536004803603604081101561051d57600080fd5b81019080803573ffffffffffffffffffffffffffffffffffffffff169060200190929190803590602001909291905050506117b8565b6040518082815260200191505060405180910390f35b6106c36004803603606081101561057f57600080fd5b8101908080359060200190929190803590602001906401000000008111156105a657600080fd5b8201836020820111156105b857600080fd5b803590602001918460018302840111640100000000831117156105da57600080fd5b91908080601f016020809104026020016040519081016040528093929190818152602001838380828437600081840152601f19601f8201169050808301925050505050505091929192908035906020019064010000000081111561063d57600080fd5b82018360208201111561064f57600080fd5b8035906020019184600183028401116401000000008311171561067157600080fd5b91908080601f016020809104026020016040519081016040528093929190818152602001838380828437600081840152601f19601f82011690508083019250505050505050919291929050505061182f565b005b6106f1600480360360208110156106db57600080fd5b8101908080359060200190929190505050611834565b6040518080602001828103825283818151815260200191508051906020019080838360005b83811015610731578082015181840152602081019050610716565b50505050905090810190601f16801561075e5780820380516001836020036101000a031916815260200191505b509250505060405180910390f35b6107b86004803603604081101561078257600080fd5b81019080803573ffffffffffffffffffffffffffffffffffffffff1690602001909291908035906020019092919050505061189b565b604051808215151515815260200191505060405180910390f35b61083e600480360360608110156107e857600080fd5b81019080803573ffffffffffffffffffffffffffffffffffffffff169060200190929190803573ffffffffffffffffffffffffffffffffffffffff169060200190929190803590602001909291905050506119e8565b005b61086c6004803603602081101561085657600080fd5b8101908080359060200190929190505050611a09565b6040518082815260200191505060405180910390f35b6108c46004803603602081101561089857600080fd5b81019080803573ffffffffffffffffffffffffffffffffffffffff169060200190929190505050611a41565b6040518080602001828103825283818151815260200191508051906020019080838360005b838110156109045780820151818401526020810190506108e9565b50505050905090810190601f1680156109315780820380516001836020036101000a031916815260200191505b509250505060405180910390f35b61096b6004803603602081101561095557600080fd5b8101908080359060200190929190505050611dfb565b604051808273ffffffffffffffffffffffffffffffffffffffff1673ffffffffffffffffffffffffffffffffffffffff16815260200191505060405180910390f35b610b3660048036036101808110156109c457600080fd5b81019080803573ffffffffffffffffffffffffffffffffffffffff1690602001909291908035906020019092919080604001906002806020026040519081016040528092919082600260200280828437600081840152601f19601f82011690508083019250505050505091929192908060800190600280602002604051908101604052809291906000905b82821015610aa3578382604002016002806020026040519081016040528092919082600260200280828437600081840152601f19601f82011690508083019250505050505081526020019060010190610a4f565b50505050919291929080604001906002806020026040519081016040528092919082600260200280828437600081840152601f19601f820116905080830192505050505050919291929080604001906002806020026040519081016040528092919082600260200280828437600081840152601f19601f8201169050808301925050505050509192919290505050611f0f565b005b610b7a60048036036020811015610b4e57600080fd5b81019080803573ffffffffffffffffffffffffffffffffffffffff16906020019092919050505061227b565b6040518082815260200191505060405180910390f35b610bbc60048036036020811015610ba657600080fd5b81019080803590602001909291905050506122cb565b6040518080602001828103825283818151815260200191508051906020019080838360005b83811015610bfc578082015181840152602081019050610be1565b50505050905090810190601f168015610c295780820380516001836020036101000a031916815260200191505b509250505060405180910390f35b610c6360048036036020811015610c4d57600080fd5b810190808035906020019092919050505061239b565b6040518080602001828103825283818151815260200191508051906020019080838360005b83811015610ca3578082015181840152602081019050610c88565b50505050905090810190601f168015610cd05780820380516001836020036101000a031916815260200191505b509250505060405180910390f35b610ce661249b565b005b610cf061264c565b604051808215151515815260200191505060405180910390f35b610d126126b4565b6040518080602001828103825283818151815260200191508051906020019080838360005b83811015610d52578082015181840152602081019050610d37565b50505050905090810190601f168015610d7f5780820380516001836020036101000a031916815260200191505b509250505060405180910390f35b610ddb60048036036040811015610da357600080fd5b81019080803573ffffffffffffffffffffffffffffffffffffffff169060200190929190803515159060200190929190505050612756565b005b610ee060048036036080811015610df357600080fd5b81019080803573ffffffffffffffffffffffffffffffffffffffff169060200190929190803573ffffffffffffffffffffffffffffffffffffffff1690602001909291908035906020019092919080359060200190640100000000811115610e5a57600080fd5b820183602082011115610e6c57600080fd5b80359060200191846001830284011164010000000083111715610e8e57600080fd5b91908080601f016020809104026020016040519081016040528093929190818152602001838380828437600081840152601f19601f820116905080830192505050505050509192919290505050612892565b005b610f0e60048036036020811015610ef857600080fd5b81019080803590602001909291905050506128ba565b6040518080602001828103825283818151815260200191508051906020019080838360005b83811015610f4e578082015181840152602081019050610f33565b50505050905090810190601f168015610f7b5780820380516001836020036101000a031916815260200191505b509250505060405180910390f35b610f91612983565b604051808273ffffffffffffffffffffffffffffffffffffffff1673ffffffffffffffffffffffffffffffffffffffff16815260200191505060405180910390f35b610fdb6129a9565b005b610fe5612b5b565b6040518080602001828103825283818151815260200191508051906020019080838360005b8381101561102557808201518184015260208101905061100a565b50505050905090810190601f1680156110525780820380516001836020036101000a031916815260200191505b509250505060405180910390f35b6110c26004803603604081101561107657600080fd5b81019080803573ffffffffffffffffffffffffffffffffffffffff169060200190929190803573ffffffffffffffffffffffffffffffffffffffff169060200190929190505050612bfd565b604051808215151515815260200191505060405180910390f35b61125b60048036036101608110156110f357600080fd5b81019080803573ffffffffffffffffffffffffffffffffffffffff16906020019092919080604001906002806020026040519081016040528092919082600260200280828437600081840152601f19601f82011690508083019250505050505091929192908060800190600280602002604051908101604052809291906000905b828210156111c8578382604002016002806020026040519081016040528092919082600260200280828437600081840152601f19601f82011690508083019250505050505081526020019060010190611174565b50505050919291929080604001906002806020026040519081016040528092919082600260200280828437600081840152601f19601f820116905080830192505050505050919291929080604001906002806020026040519081016040528092919082600260200280828437600081840152601f19601f8201169050808301925050505050509192919290505050612c91565b005b61129f6004803603602081101561127357600080fd5b81019080803573ffffffffffffffffffffffffffffffffffffffff169060200190929190505050612db4565b005b6112cd600480360360208110156112b757600080fd5b8101908080359060200190929190505050613049565b6040518080602001828103825283818151815260200191508051906020019080838360005b8381101561130d5780820151818401526020810190506112f2565b50505050905090810190601f16801561133a5780820380516001836020036101000a031916815260200191505b509250505060405180910390f35b600060016000837bffffffffffffffffffffffffffffffffffffffffffffffffffffffff19167bffffffffffffffffffffffffffffffffffffffffffffffffffffffff1916815260200190815260200160002060009054906101000a900460ff169050919050565b6060600f8054600181600116156101000203166002900480601f0160208091040260200160405190810160405280929190818152602001828054600181600116156101000203166002900480156114485780601f1061141d57610100808354040283529160200191611448565b820191906000526020600020905b81548152906001019060200180831161142b57829003601f168201915b5050505050905090565b60008073ffffffffffffffffffffffffffffffffffffffff166003600084815260200190815260200160002060009054906101000a900473ffffffffffffffffffffffffffffffffffffffff1673ffffffffffffffffffffffffffffffffffffffff161415151561152b576040517f08c379a000000000000000000000000000000000000000000000000000000000815260040180806020018281038252601d8152602001807f546f6b656e20617070726f76616c20646f6573206e6f7420657869737400000081525060200191505060405180910390fd5b6003600083815260200190815260200160002060009054906101000a900473ffffffffffffffffffffffffffffffffffffffff169050919050565b600061157182611dfb565b90508273ffffffffffffffffffffffffffffffffffffffff168173ffffffffffffffffffffffffffffffffffffffff16141515156115fa576040517f08c379a000000000000000000000000000000000000000000000000000000000815260040180806020018281038252602a81526020018061467c602a913960400191505060405180910390fd5b3373ffffffffffffffffffffffffffffffffffffffff168173ffffffffffffffffffffffffffffffffffffffff16148061163a57506116398133612bfd565b5b1515611691576040517f08c379a000000000000000000000000000000000000000000000000000000000815260040180806020018281038252602a815260200180614652602a913960400191505060405180910390fd5b826003600084815260200190815260200160002060006101000a81548173ffffffffffffffffffffffffffffffffffffffff021916908373ffffffffffffffffffffffffffffffffffffffff160217905550818373ffffffffffffffffffffffffffffffffffffffff168273ffffffffffffffffffffffffffffffffffffffff167f8c5be1e5ebec7d5bd14f71427d1e84f3dd0314c0f7b2291e5b200ac8c7c3b92560405160405180910390a4505050565b6000600880549050905090565b61175a3382613090565b151561176557600080fd5b611770838383613125565b505050565b6117b4828260006040519080825280601f01601f1916602001820160405280156117ae5781602001600182028038833980820191505090505b5061182f565b5050565b60006117c38361227b565b821015156117d057600080fd5b600660008473ffffffffffffffffffffffffffffffffffffffff1673ffffffffffffffffffffffffffffffffffffffff1681526020019081526020016000208281548110151561181c57fe5b9060005260206000200154905092915050565b505050565b6060600060166000848152602001908152602001600020549050606061188f6015600084815260200190815260200160002060010160009054906101000a900473ffffffffffffffffffffffffffffffffffffffff16611a41565b90508092505050919050565b60008060009054906101000a900473ffffffffffffffffffffffffffffffffffffffff1673ffffffffffffffffffffffffffffffffffffffff163373ffffffffffffffffffffffffffffffffffffffff16141515611944576040517f08c379a00000000000000000000000000000000000000000000000000000000081526004018080602001828103825260298152602001806146a66029913960400191505060405180910390fd5b60001515600060149054906101000a900460ff1615151415156119cf576040517f08c379a00000000000000000000000000000000000000000000000000000000081526004018080602001828103825260128152602001807f436f6e747261637420697320706175736564000000000000000000000000000081525060200191505060405180910390fd5b6119d98383613149565b6119e28261316a565b92915050565b611a048383836020604051908101604052806000815250612892565b505050565b6000611a13611743565b82101515611a2057600080fd5b600882815481101515611a2f57fe5b90600052602060002001549050919050565b606060008273ffffffffffffffffffffffffffffffffffffffff16600102905060606040805190810160405280601081526020017f30313233343536373839616263646566000000000000000000000000000000008152509050606060336040519080825280601f01601f191660200182016040528015611ad15781602001600182028038833980820191505090505b5090507f3000000000000000000000000000000000000000000000000000000000000000816000815181101515611b0457fe5b9060200101907effffffffffffffffffffffffffffffffffffffffffffffffffffffffffffff1916908160001a9053507f7800000000000000000000000000000000000000000000000000000000000000816001815181101515611b6457fe5b9060200101907effffffffffffffffffffffffffffffffffffffffffffffffffffffffffffff1916908160001a90535060008090505b6014811015611def5782600485600c8401602081101515611bb757fe5b1a7f0100000000000000000000000000000000000000000000000000000000000000027effffffffffffffffffffffffffffffffffffffffffffffffffffffffffffff1916908060020a82049150507f0100000000000000000000000000000000000000000000000000000000000000900460ff16815181101515611c3857fe5b9060200101517f010000000000000000000000000000000000000000000000000000000000000090047f0100000000000000000000000000000000000000000000000000000000000000028260028302600201815181101515611c9757fe5b9060200101907effffffffffffffffffffffffffffffffffffffffffffffffffffffffffffff1916908160001a90535082600f7f01000000000000000000000000000000000000000000000000000000000000000285600c8401602081101515611cfd57fe5b1a7f010000000000000000000000000000000000000000000000000000000000000002167f0100000000000000000000000000000000000000000000000000000000000000900460ff16815181101515611d5357fe5b9060200101517f010000000000000000000000000000000000000000000000000000000000000090047f0100000000000000000000000000000000000000000000000000000000000000028260028302600301815181101515611db257fe5b9060200101907effffffffffffffffffffffffffffffffffffffffffffffffffffffffffffff1916908160001a9053508080600101915050611b9a565b50809350505050919050565b60008073ffffffffffffffffffffffffffffffffffffffff166002600084815260200190815260200160002060009054906101000a900473ffffffffffffffffffffffffffffffffffffffff1673ffffffffffffffffffffffffffffffffffffffff1614151515611ed4576040517f08c379a00000000000000000000000000000000000000000000000000000000081526004018080602001828103825260158152602001807f546f6b656e20646f657374206e6f74206578697374000000000000000000000081525060200191505060405180910390fd5b6002600083815260200190815260200160002060009054906101000a900473ffffffffffffffffffffffffffffffffffffffff169050919050565b6000611f1d858585856132bd565b90506000601560008381526020019081526020016000206000015414611f966040805190810160405280601781526020017f416c726561647920657869737420736f6c7574696f6e21000000000000000000815250611f9160156000868152602001908152602001600020600001546133cb565b613524565b90151561203e576040517f08c379a00000000000000000000000000000000000000000000000000000000081526004018080602001828103825283818151815260200191508051906020019080838360005b83811015612003578082015181840152602081019050611fe8565b50505050905090810190601f1680156120305780820380516001836020036101000a031916815260200191505b509250505060405180910390fd5b50601360009054906101000a900473ffffffffffffffffffffffffffffffffffffffff1673ffffffffffffffffffffffffffffffffffffffff1663621e9ec0868686866040518563ffffffff167c01000000000000000000000000000000000000000000000000000000000281526004018085600260200280838360005b838110156120d75780820151818401526020810190506120bc565b505050509050018460026000925b8184101561212b5782846020020151600260200280838360005b8381101561211a5780820151818401526020810190506120ff565b5050505090500192600101926120e5565b9250505083600260200280838360005b8381101561215657808201518184015260208101905061213b565b5050505090500182600260200280838360005b83811015612184578082015181840152602081019050612169565b50505050905001945050505050602060405180830381600087803b1580156121ab57600080fd5b505af11580156121bf573d6000803e3d6000fd5b505050506040513d60208110156121d557600080fd5b8101908080519060200190929190505050151561225a576040517f08c379a00000000000000000000000000000000000000000000000000000000081526004018080602001828103825260178152602001807f536f6c7574696f6e2069736e277420636f72726563742e00000000000000000081525060200191505060405180910390fd5b6122678786868686612c91565b612271878761189b565b5050505050505050565b60006122c4600460008473ffffffffffffffffffffffffffffffffffffffff1673ffffffffffffffffffffffffffffffffffffffff16815260200190815260200160002061356b565b9050919050565b606060206040519080825280601f01601f1916602001820160405280156123015781602001600182028038833980820191505090505b50905060008090505b60208110156123955780601f0360080260020a8381151561232757fe5b047f010000000000000000000000000000000000000000000000000000000000000002828281518110151561235857fe5b9060200101907effffffffffffffffffffffffffffffffffffffffffffffffffffffffffffff1916908160001a905350808060010191505061230a565b50919050565b606060006016600084815260200190815260200160002054905060606123d660156000848152602001908152602001600020600001546133cb565b905060606124196015600085815260200190815260200160002060010160009054906101000a900473ffffffffffffffffffffffffffffffffffffffff16611a41565b90506124916040805190810160405280600981526020017f20696e646578203a200000000000000000000000000000000000000000000000815250836040805190810160405280600981526020017f206f776e6572203a20000000000000000000000000000000000000000000000081525084613579565b9350505050919050565b6000809054906101000a900473ffffffffffffffffffffffffffffffffffffffff1673ffffffffffffffffffffffffffffffffffffffff163373ffffffffffffffffffffffffffffffffffffffff16141515612542576040517f08c379a00000000000000000000000000000000000000000000000000000000081526004018080602001828103825260298152602001806146a66029913960400191505060405180910390fd5b60011515600060149054906101000a900460ff1615151415156125cd576040517f08c379a00000000000000000000000000000000000000000000000000000000081526004018080602001828103825260168152602001807f436f6e7472616374206973206e6f74207061757365640000000000000000000081525060200191505060405180910390fd5b60008060146101000a81548160ff0219169083151502179055507f81990fd9a5c552b8e3677917d8a03c07678f0d2cb68f88b634aca2022e9bd19f33604051808273ffffffffffffffffffffffffffffffffffffffff1673ffffffffffffffffffffffffffffffffffffffff16815260200191505060405180910390a1565b60008060009054906101000a900473ffffffffffffffffffffffffffffffffffffffff1673ffffffffffffffffffffffffffffffffffffffff163373ffffffffffffffffffffffffffffffffffffffff1614156126ac57600190506126b1565b600090505b90565b606060108054600181600116156101000203166002900480601f01602080910402602001604051908101604052809291908181526020018280546001816001161561010002031660029004801561274c5780601f106127215761010080835404028352916020019161274c565b820191906000526020600020905b81548152906001019060200180831161272f57829003601f168201915b5050505050905090565b3373ffffffffffffffffffffffffffffffffffffffff168273ffffffffffffffffffffffffffffffffffffffff161415151561279157600080fd5b80600560003373ffffffffffffffffffffffffffffffffffffffff1673ffffffffffffffffffffffffffffffffffffffff16815260200190815260200160002060008473ffffffffffffffffffffffffffffffffffffffff1673ffffffffffffffffffffffffffffffffffffffff16815260200190815260200160002060006101000a81548160ff0219169083151502179055508173ffffffffffffffffffffffffffffffffffffffff163373ffffffffffffffffffffffffffffffffffffffff167f17307eab39ab6107e8899845ad3d59bd9653f200f220920489ca2b5937696c3183604051808215151515815260200191505060405180910390a35050565b61289d848484611750565b6128a9848484846135a2565b15156128b457600080fd5b50505050565b60606128c5826137c5565b15156128d057600080fd5b601260008381526020019081526020016000208054600181600116156101000203166002900480601f0160208091040260200160405190810160405280929190818152602001828054600181600116156101000203166002900480156129775780601f1061294c57610100808354040283529160200191612977565b820191906000526020600020905b81548152906001019060200180831161295a57829003601f168201915b50505050509050919050565b601360009054906101000a900473ffffffffffffffffffffffffffffffffffffffff1681565b6000809054906101000a900473ffffffffffffffffffffffffffffffffffffffff1673ffffffffffffffffffffffffffffffffffffffff163373ffffffffffffffffffffffffffffffffffffffff16141515612a50576040517f08c379a00000000000000000000000000000000000000000000000000000000081526004018080602001828103825260298152602001806146a66029913960400191505060405180910390fd5b60001515600060149054906101000a900460ff161515141515612adb576040517f08c379a00000000000000000000000000000000000000000000000000000000081526004018080602001828103825260128152602001807f436f6e747261637420697320706175736564000000000000000000000000000081525060200191505060405180910390fd5b6001600060146101000a81548160ff0219169083151502179055507f81990fd9a5c552b8e3677917d8a03c07678f0d2cb68f88b634aca2022e9bd19f33604051808273ffffffffffffffffffffffffffffffffffffffff1673ffffffffffffffffffffffffffffffffffffffff16815260200191505060405180910390a1565b606060118054600181600116156101000203166002900480601f016020809104026020016040519081016040528092919081815260200182805460018160011615610100020316600290048015612bf35780601f10612bc857610100808354040283529160200191612bf3565b820191906000526020600020905b815481529060010190602001808311612bd657829003601f168201915b5050505050905090565b6000600560008473ffffffffffffffffffffffffffffffffffffffff1673ffffffffffffffffffffffffffffffffffffffff16815260200190815260200160002060008373ffffffffffffffffffffffffffffffffffffffff1673ffffffffffffffffffffffffffffffffffffffff16815260200190815260200160002060009054906101000a900460ff16905092915050565b6000612c9f858585856132bd565b9050612cb7600160145461383790919063ffffffff16565b601481905550856015600083815260200190815260200160002060010160006101000a81548173ffffffffffffffffffffffffffffffffffffffff021916908373ffffffffffffffffffffffffffffffffffffffff160217905550601454601560008381526020019081526020016000206000018190555080601660006014548152602001908152602001600020819055507fcd096f17a41ca2f28be4f38411924d525e3be72c0a5047cae9fec2aff3fe0c5586604051808273ffffffffffffffffffffffffffffffffffffffff1673ffffffffffffffffffffffffffffffffffffffff16815260200191505060405180910390a1505050505050565b6000809054906101000a900473ffffffffffffffffffffffffffffffffffffffff1673ffffffffffffffffffffffffffffffffffffffff163373ffffffffffffffffffffffffffffffffffffffff16141515612e5b576040517f08c379a00000000000000000000000000000000000000000000000000000000081526004018080602001828103825260298152602001806146a66029913960400191505060405180910390fd5b600073ffffffffffffffffffffffffffffffffffffffff163373ffffffffffffffffffffffffffffffffffffffff1614151515612f00576040517f08c379a00000000000000000000000000000000000000000000000000000000081526004018080602001828103825260148152602001807f4e6f7420612070726f706572206164647265737300000000000000000000000081525060200191505060405180910390fd5b3273ffffffffffffffffffffffffffffffffffffffff163373ffffffffffffffffffffffffffffffffffffffff16141515612fa3576040517f08c379a000000000000000000000000000000000000000000000000000000000815260040180806020018281038252601d8152602001807f4e6f7420616e2065787465726e616c206f776e6564206164647265737300000081525060200191505060405180910390fd5b806000806101000a81548173ffffffffffffffffffffffffffffffffffffffff021916908373ffffffffffffffffffffffffffffffffffffffff1602179055507f04dba622d284ed0014ee4b9a6a68386be1a4c08a4913ae272de89199cc68616381604051808273ffffffffffffffffffffffffffffffffffffffff1673ffffffffffffffffffffffffffffffffffffffff16815260200191505060405180910390a150565b6060600060166000848152602001908152602001600020549050606061308460156000848152602001908152602001600020600001546133cb565b90508092505050919050565b60008061309c83611dfb565b90508073ffffffffffffffffffffffffffffffffffffffff168473ffffffffffffffffffffffffffffffffffffffff16148061310b57508373ffffffffffffffffffffffffffffffffffffffff166130f384611452565b73ffffffffffffffffffffffffffffffffffffffff16145b8061311c575061311b8185612bfd565b5b91505092915050565b613130838383613858565b61313a8382613aea565b6131448282613c8e565b505050565b6131538282613d55565b61315d8282613c8e565b61316681613fca565b5050565b613173816137c5565b15156131e7576040517f08c379a00000000000000000000000000000000000000000000000000000000081526004018080602001828103825260148152602001807f546f6b656e20646f6573206e6f7420657869737400000000000000000000000081525060200191505060405180910390fd5b61329360118054600181600116156101000203166002900480601f0160208091040260200160405190810160405280929190818152602001828054600181600116156101000203166002900480156132805780601f1061325557610100808354040283529160200191613280565b820191906000526020600020905b81548152906001019060200180831161326357829003601f168201915b505050505061328e836133cb565b613524565b6012600083815260200190815260200160002090805190602001906132b992919061455f565b5050565b6000848484846040516020018085600260200280838360005b838110156132f15780820151818401526020810190506132d6565b505050509050018460026000925b818410156133455782846020020151600260200280838360005b83811015613334578082015181840152602081019050613319565b5050505090500192600101926132ff565b9250505083600260200280838360005b83811015613370578082015181840152602081019050613355565b5050505090500182600260200280838360005b8381101561339e578082015181840152602081019050613383565b50505050905001945050505050604051602081830303815290604052805190602001209050949350505050565b60606000821415613413576040805190810160405280600181526020017f3000000000000000000000000000000000000000000000000000000000000000815250905061351f565b600082905060005b600082141515613441578080600101915050600a8281151561343957fe5b04915061341b565b6060816040519080825280601f01601f1916602001820160405280156134765781602001600182028038833980820191505090505b50905060006001830390505b60008614151561351757600a8681151561349857fe5b066030017f0100000000000000000000000000000000000000000000000000000000000000028282806001900393508151811015156134d357fe5b9060200101907effffffffffffffffffffffffffffffffffffffffffffffffffffffffffffff1916908160001a905350600a8681151561350f57fe5b049550613482565b819450505050505b919050565b60606135638383602060405190810160405280600081525060206040519081016040528060008152506020604051908101604052806000815250614016565b905092915050565b600081600001549050919050565b6060613598858585856020604051908101604052806000815250614016565b9050949350505050565b60006135c38473ffffffffffffffffffffffffffffffffffffffff16614431565b15156135d257600190506137bd565b60008473ffffffffffffffffffffffffffffffffffffffff1663150b7a02338887876040518563ffffffff167c0100000000000000000000000000000000000000000000000000000000028152600401808573ffffffffffffffffffffffffffffffffffffffff1673ffffffffffffffffffffffffffffffffffffffff1681526020018473ffffffffffffffffffffffffffffffffffffffff1673ffffffffffffffffffffffffffffffffffffffff16815260200183815260200180602001828103825283818151815260200191508051906020019080838360005b838110156136c95780820151818401526020810190506136ae565b50505050905090810190601f1680156136f65780820380516001836020036101000a031916815260200191505b5095505050505050602060405180830381600087803b15801561371857600080fd5b505af115801561372c573d6000803e3d6000fd5b505050506040513d602081101561374257600080fd5b8101908080519060200190929190505050905063150b7a027c0100000000000000000000000000000000000000000000000000000000027bffffffffffffffffffffffffffffffffffffffffffffffffffffffff1916817bffffffffffffffffffffffffffffffffffffffffffffffffffffffff1916149150505b949350505050565b6000806002600084815260200190815260200160002060009054906101000a900473ffffffffffffffffffffffffffffffffffffffff169050600073ffffffffffffffffffffffffffffffffffffffff168173ffffffffffffffffffffffffffffffffffffffff161415915050919050565b600080828401905083811015151561384e57600080fd5b8091505092915050565b6138628382613090565b151561386d57600080fd5b8173ffffffffffffffffffffffffffffffffffffffff1661388d82611dfb565b73ffffffffffffffffffffffffffffffffffffffff16141515156138fc576040517f08c379a00000000000000000000000000000000000000000000000000000000081526004018080602001828103825260218152602001806146316021913960400191505060405180910390fd5b600073ffffffffffffffffffffffffffffffffffffffff168273ffffffffffffffffffffffffffffffffffffffff16141515156139a1576040517f08c379a00000000000000000000000000000000000000000000000000000000081526004018080602001828103825260168152602001807f4e6f7420612076616c696420746f20616464726573730000000000000000000081525060200191505060405180910390fd5b6139aa81614444565b6139f1600460008573ffffffffffffffffffffffffffffffffffffffff1673ffffffffffffffffffffffffffffffffffffffff168152602001908152602001600020614504565b613a38600460008473ffffffffffffffffffffffffffffffffffffffff1673ffffffffffffffffffffffffffffffffffffffff168152602001908152602001600020614527565b816002600083815260200190815260200160002060006101000a81548173ffffffffffffffffffffffffffffffffffffffff021916908373ffffffffffffffffffffffffffffffffffffffff160217905550808273ffffffffffffffffffffffffffffffffffffffff168473ffffffffffffffffffffffffffffffffffffffff167fddf252ad1be2c89b69c2b068fc378daa952ba7f163c4a11628f55a4df523b3ef60405160405180910390a4505050565b6000613b426001600660008673ffffffffffffffffffffffffffffffffffffffff1673ffffffffffffffffffffffffffffffffffffffff1681526020019081526020016000208054905061453d90919063ffffffff16565b90506000600760008481526020019081526020016000205490508181141515613c35576000600660008673ffffffffffffffffffffffffffffffffffffffff1673ffffffffffffffffffffffffffffffffffffffff16815260200190815260200160002083815481101515613bb357fe5b9060005260206000200154905080600660008773ffffffffffffffffffffffffffffffffffffffff1673ffffffffffffffffffffffffffffffffffffffff16815260200190815260200160002083815481101515613c0d57fe5b9060005260206000200181905550816007600083815260200190815260200160002081905550505b600660008573ffffffffffffffffffffffffffffffffffffffff1673ffffffffffffffffffffffffffffffffffffffff168152602001908152602001600020805480919060019003613c8791906145df565b5050505050565b600660008373ffffffffffffffffffffffffffffffffffffffff1673ffffffffffffffffffffffffffffffffffffffff168152602001908152602001600020805490506007600083815260200190815260200160002081905550600660008373ffffffffffffffffffffffffffffffffffffffff1673ffffffffffffffffffffffffffffffffffffffff1681526020019081526020016000208190806001815401808255809150509060018203906000526020600020016000909192909190915055505050565b600073ffffffffffffffffffffffffffffffffffffffff168273ffffffffffffffffffffffffffffffffffffffff1614151515613dfa576040517f08c379a00000000000000000000000000000000000000000000000000000000081526004018080602001828103825260178152602001807f546f2061646472657373206973206e6f742076616c696400000000000000000081525060200191505060405180910390fd5b600073ffffffffffffffffffffffffffffffffffffffff166002600083815260200190815260200160002060009054906101000a900473ffffffffffffffffffffffffffffffffffffffff1673ffffffffffffffffffffffffffffffffffffffff16141515613ed1576040517f08c379a00000000000000000000000000000000000000000000000000000000081526004018080602001828103825260148152602001807f546f6b656e20616c72656164792065786973747300000000000000000000000081525060200191505060405180910390fd5b816002600083815260200190815260200160002060006101000a81548173ffffffffffffffffffffffffffffffffffffffff021916908373ffffffffffffffffffffffffffffffffffffffff160217905550613f6a600460008473ffffffffffffffffffffffffffffffffffffffff1673ffffffffffffffffffffffffffffffffffffffff168152602001908152602001600020614527565b808273ffffffffffffffffffffffffffffffffffffffff16600073ffffffffffffffffffffffffffffffffffffffff167fddf252ad1be2c89b69c2b068fc378daa952ba7f163c4a11628f55a4df523b3ef60405160405180910390a45050565b6008805490506009600083815260200190815260200160002081905550600881908060018154018082558091505090600182039060005260206000200160009091929091909150555050565b6060808690506060869050606086905060608690506060869050606081518351855187518951010101016040519080825280601f01601f1916602001820160405280156140725781602001600182028038833980820191505090505b509050606081905060008090506000809050600090505b885181101561413c5788818151811015156140a057fe5b9060200101517f010000000000000000000000000000000000000000000000000000000000000090047f01000000000000000000000000000000000000000000000000000000000000000283838060010194508151811015156140ff57fe5b9060200101907effffffffffffffffffffffffffffffffffffffffffffffffffffffffffffff1916908160001a9053508080600101915050614089565b600090505b87518110156141f457878181518110151561415857fe5b9060200101517f010000000000000000000000000000000000000000000000000000000000000090047f01000000000000000000000000000000000000000000000000000000000000000283838060010194508151811015156141b757fe5b9060200101907effffffffffffffffffffffffffffffffffffffffffffffffffffffffffffff1916908160001a9053508080600101915050614141565b600090505b86518110156142ac57868181518110151561421057fe5b9060200101517f010000000000000000000000000000000000000000000000000000000000000090047f010000000000000000000000000000000000000000000000000000000000000002838380600101945081518110151561426f57fe5b9060200101907effffffffffffffffffffffffffffffffffffffffffffffffffffffffffffff1916908160001a90535080806001019150506141f9565b600090505b85518110156143645785818151811015156142c857fe5b9060200101517f010000000000000000000000000000000000000000000000000000000000000090047f010000000000000000000000000000000000000000000000000000000000000002838380600101945081518110151561432757fe5b9060200101907effffffffffffffffffffffffffffffffffffffffffffffffffffffffffffff1916908160001a90535080806001019150506142b1565b600090505b845181101561441c57848181518110151561438057fe5b9060200101517f010000000000000000000000000000000000000000000000000000000000000090047f01000000000000000000000000000000000000000000000000000000000000000283838060010194508151811015156143df57fe5b9060200101907effffffffffffffffffffffffffffffffffffffffffffffffffffffffffffff1916908160001a9053508080600101915050614369565b82995050505050505050505095945050505050565b600080823b905060008111915050919050565b600073ffffffffffffffffffffffffffffffffffffffff166003600083815260200190815260200160002060009054906101000a900473ffffffffffffffffffffffffffffffffffffffff1673ffffffffffffffffffffffffffffffffffffffff161415156145015760006003600083815260200190815260200160002060006101000a81548173ffffffffffffffffffffffffffffffffffffffff021916908373ffffffffffffffffffffffffffffffffffffffff1602179055505b50565b61451c6001826000015461453d90919063ffffffff16565b816000018190555050565b6001816000016000828254019250508190555050565b600082821115151561454e57600080fd5b600082840390508091505092915050565b828054600181600116156101000203166002900490600052602060002090601f016020900481019282601f106145a057805160ff19168380011785556145ce565b828001600101855582156145ce579182015b828111156145cd5782518255916020019190600101906145b2565b5b5090506145db919061460b565b5090565b81548183558181111561460657818360005260206000209182019101614605919061460b565b5b505050565b61462d91905b80821115614629576000816000905550600101614611565b5090565b9056fe546f20697320616c7265616420746865206f776e6572206f6620746f6b656e496453656e646572206973206e6f7420617070726f766564206173206f776e6572206f6620746f6b656e4964546f206164647265737320697320616c726561647920746865206f776e6572206f6620746f6b656e49644f6e6c79206f776e657220697320616c6c6f77656420746f2063616c6c2074686973206d6574686f64a165627a7a723058201d5b8e509cc9ce4bc607dca94616b2d1682f03eba297cacffe1dd8ef590dc170002968747470733a2f2f73332d75732d776573742d322e616d617a6f6e6177732e636f6d2f756461636974792d626c6f636b636861696e2f63617073746f6e652f",
  "source": "pragma solidity >=0.4.21 <0.6.0;\n\nimport \"./RealEstateNFT.sol\";\n\n// TODO define a contract call to the zokrates generated solidity contract <Verifier> or <renamedVerifier>\nimport \"./SquareVerifier.sol\";\n\ncontract Verifier {\n  function verifyTx(\n        uint[2] memory a,\n        uint[2][2] memory b,\n        uint[2] memory c,\n        uint[2] memory input\n    ) public returns (bool r);\n}\n\n// TODO define another contract named SolnSquareVerifier that inherits from your ERC721Mintable class\ncontract SolnSquareVerifier is RealEstateNFT {\n    using SafeMath for uint256;\n\n    Verifier public verifierContract;\n\n    // TODO define a solutions struct that can hold an index & an address\n    struct Solution {\n        uint index;\n        address owner;\n    }\n    uint _countSolution = 0;\n\n    // as flight surety project address is not the key and link with uint -> key -> Solution with double map\n    // TODO define an array of the above struct\n    mapping(bytes32 => Solution) private _mapSolution;\n\n    // TODO define a mapping to store unique solutions submitted\n    mapping(uint => bytes32) private _mapLookupSolution;\n\n    // TODO Create an event to emit when a solution is added\n    event AddedSolutionEvent(address addressSolution);\n\n    constructor(\n        address verifierAddress,\n        string memory tokenName,\n        string memory tokenSymbol\n    ) \n    RealEstateNFT(tokenName, tokenSymbol)\n    public {\n        verifierContract = Verifier(verifierAddress);\n    }\n\n    function _getSolutionKey(\n        uint[2] memory a,\n        uint[2][2] memory b,\n        uint[2] memory c,\n        uint[2] memory input\n    )  \n    private \n    pure \n    returns (bytes32){\n        return keccak256(abi.encodePacked(a,b,c,input));\n    }\n\n    // TODO Create a function to add the solutions to the array and emit the event\n    function addSolution(\n        address owner,\n        uint[2] memory a,\n        uint[2][2] memory b,\n        uint[2] memory c,\n        uint[2] memory inputs\n    ) public \n    {\n        bytes32 solutionKey = _getSolutionKey(a,b,c,inputs);\n\n        _countSolution = _countSolution.add(1);\n\n        _mapSolution[solutionKey].owner = owner;\n        _mapSolution[solutionKey].index = _countSolution;\n\n        _mapLookupSolution[_countSolution] = solutionKey;\n\n        emit AddedSolutionEvent(owner);\n    }\n\n    function getSolutionInfoByCount(\n        uint256 countSolution\n    ) \n    public\n    view \n    returns (string memory){\n        bytes32 key = _mapLookupSolution[countSolution];\n        string memory index = uint2str(_mapSolution[key].index);\n        string memory owner = addressToString(_mapSolution[key].owner);\n        return strConcat(\n            \" index : \", index, \n            \" owner : \", owner);\n    }\n\n    function getOwnerByCount(\n        uint256 countSolution\n    ) \n    public\n    view \n    returns (string memory){\n        bytes32 key = _mapLookupSolution[countSolution];\n        string memory owner = addressToString(_mapSolution[key].owner);\n        return owner;\n    }\n\n    function getIndexByCount(\n        uint256 countSolution\n    ) \n    public\n    view \n    returns (string memory){\n        bytes32 key = _mapLookupSolution[countSolution];\n        string memory index = uint2str(_mapSolution[key].index);\n        return index;\n    }\n\n\n    // TODO Create a function to mint new NFT only after the solution has been verified\n    function mintNewNFT(\n        address owner,\n        uint256 tokenId,\n        uint[2] memory a,\n        uint[2][2] memory b,\n        uint[2] memory c,\n        uint[2] memory inputs\n    ) public {\n        bytes32 solutionKey = _getSolutionKey(a,b,c,inputs);\n\n        //  - make sure the solution is unique (has not been used before)\n        require(_mapSolution[solutionKey].index == 0,\n            strConcat(\"Already exist solution!\",\n                uint2str(_mapSolution[solutionKey].index)));\n\n        //  - make sure you handle metadata as well as tokenSuplly\n        require(verifierContract.verifyTx(\n                a,\n                b,\n                c,\n                inputs), \n            \"Solution isn't correct.\");\n\n        addSolution(\n            owner, \n            a,\n            b,\n            c,\n            inputs);\n\n        super.mint(owner, tokenId);\n    }\n}",
  "sourcePath": "/home/isma/Desktop/code/blockchain/RealEstateMarketplace/eth-contracts/contracts/RealEstateNFTVerifier.sol",
  "compiler": {
    "name": "solc",
    "version": "0.5.2+commit.1df8f40c.Emscripten.clang"
  },
  "schemaVersion": "3.4.9",
  "updatedAt": "2022-09-23T21:36:55.981Z",
  "networkType": "ethereum",
  "devdoc": {
    "methods": {
      "isApprovedForAll(address,address)": {
        "details": "Tells whether an operator is approved by a given owner",
        "params": {
          "operator": "operator address which you want to query the approval of",
          "owner": "owner address which you want to query the approval of"
        },
        "return": "bool whether the given operator is approved by the given owner"
      },
      "setApprovalForAll(address,bool)": {
        "details": "Sets or unsets the approval of a given operator An operator is allowed to transfer all tokens of the sender on their behalf",
        "params": {
          "approved": "representing the status of the approval to be set",
          "to": "operator address to set the approval"
        }
      },
      "tokenByIndex(uint256)": {
        "details": "Gets the token ID at a given index of all the tokens in this contract Reverts if the index is greater or equal to the total number of tokens",
        "params": {
          "index": "uint256 representing the index to be accessed of the tokens list"
        },
        "return": "uint256 token ID at the given index of the tokens list"
      },
      "tokenOfOwnerByIndex(address,uint256)": {
        "details": "Gets the token ID at a given index of the tokens list of the requested owner",
        "params": {
          "index": "uint256 representing the index to be accessed of the requested tokens list",
          "owner": "address owning the tokens list to be accessed"
        },
        "return": "uint256 token ID at the given index of the tokens list owned by the requested address"
      },
      "totalSupply()": {
        "details": "Gets the total amount of tokens stored by the contract",
        "return": "uint256 representing the total amount of tokens"
      }
    }
  },
  "userdoc": {
    "methods": {
      "approve(address,uint256)": {
        "notice": "*****************************************************************************************"
      },
      "balanceOf(address)": {
        "notice": "*****************************************************************************************"
      },
      "isOwner()": {
        "notice": "*****************************************************************************************"
      },
      "name()": {
        "notice": "*****************************************************************************************"
      },
      "setPause()": {
        "notice": "*****************************************************************************************"
      },
      "supportsInterface(bytes4)": {
        "notice": "*****************************************************************************************"
      },
      "transferOwnership(address)": {
        "notice": "*****************************************************************************************"
      }
    }
  }
}